:100000000C9441000C948C020C94AE020C945E0093
:100010000C945E000C945E000C945E000C945E00E8
:100020000C945E000C945E000C94D0020C945E0064
:100030000C945E000C945E000C945E000C945E00C8
:100040000C945E000C945E000C945E000C94F10223
:100050000C945E0053027502750259027502750216
:1000600075027502650275025C0275025F02750217
:1000700062027302750275025602750275027502FC
:10008000500211241FBECFE5D8E0DEBFCDBF10E087
:10009000A0E6B0E0E6E8F7E002C005900D92A437D4
:1000A000B107D9F720E0A4E7B0E001C01D92A83C59
:1000B000B207E1F70E9485020C94C1030C94000082
:1000C00011B890E290B995E496BF880F82B908956F
:1000D00081B1803AD1F028F4803641F0803849F07F
:1000E00035C0883A21F1883B59F130C010929C000C
:1000F0002DC0E0919C0081E08E0F80939C0083B125
:10010000F0E0EC58FF4F808321C0E091B200F09105
:10011000B30060919C0084E790E00995E4E7F0E08B
:1001200088E890E01192E817F907E1F70FC0109204
:100130009C00E091B000F091B100099583B906C030
:10014000E091B000F091B100099583B986B780685D
:1001500086BF08959093B3008093B2000895909362
:10016000B1008093B00008955D9BFECF8CB90895D7
:10017000CF93DF93EC018881882331F021960E9490
:10018000B40089918111FBCFDF91CF91089510BC0C
:100190008CE089B91BB886E880BD88E18AB981E620
:1001A00090E00E94B8000895CF93DF93CDB7DEB7FB
:1001B00061970FB6F894DEBF0FBECDBF462F50E05B
:1001C000BE016F5F7F4F0E948103FE0131969E0149
:1001D0002E5E3F4F8081805D8193E217F307D1F758
:1001E000CE0101960E94B80061960FB6F894DEBF6A
:1001F0000FBECDBFDF91CF910895662359F0FC016A
:10020000A4EBB0E09C01260F311D91919D93E21764
:10021000F307D9F78FEF80939E00089580919D009A
:100220000895833D08F082ED633D08F062ED8ABDDC
:1002300068BD0895CF93DF939091AE00891791F137
:10024000D62FC82F2091AF00621761F1C91718F49B
:1002500091509093AE009091AE009C1718F49F5F60
:100260009093AE00D21718F421502093AF009091D4
:10027000AF009D1718F49F5F9093AF006091AF009F
:100280008091AE000E9411018FE99FE00197F1F784
:1002900000C000009091AE00C91721F02091AF007E
:1002A000D213D4CFDF91CF91089580916000875E03
:1002B0008093600008958091600089518093600070
:1002C0000895882311F0AA9A01C0AA98662311F014
:1002D000AB9A01C0AB986093A9008093AA000895DF
:1002E000F8948FEF84BB80E381BB82EA8FBD81E10C
:1002F0008EBD82ED90E097BD86BD1ABC18BC60E053
:1003000080E00E94610185E085BF80EA8BBF8AE0C2
:1003100083BF83E68CBF82E089BF0E94C70080E272
:100320000E9460008DEF90E00E94AA008EE091E0B4
:100330000E94AF00789408958091AA00811104C0B2
:100340008091A900882341F060E080E00E941A01BA
:1003500060E080E00E94610180916000682F0E944F
:100360001A0108958091AA00813021F48091A9009A
:10037000813041F060E080E00E941A0161E081E09C
:100380000E94610180916000682F0E941A01089507
:100390008091AA00813021F48091A900882341F046
:1003A00060E080E00E941A0160E081E00E9461014B
:1003B00080916000682F0E941A0108958091AA0020
:1003C000811104C08091A900813041F060E080E09B
:1003D0000E941A0161E080E00E946101809160004A
:1003E000682F0E941A01089560E080E00E941101C8
:1003F0001092AF001092AE0008956091A500709128
:10040000A6008091A3009091A400680F791F7695B3
:10041000679580E090E00E94150308958091AF00F9
:10042000811104C08091AE00882319F082EA8FBD4B
:1004300001C01FBC0E94FD0120E030E048E453E40D
:100440000E94760388238CF08091A1009091A200F5
:1004500001969093A2008093A1001092A6001092A2
:10046000A5001092A4001092A30008956AE0809164
:10047000A1009091A2000E94D400089580919E0056
:100480008823C9F1E091B4008E2F90E0FC01E15681
:10049000F109E731F10548F5E65DFF4F0C947B0368
:1004A0000E949C0122C00E94C8011FC00E94B2018C
:1004B0001CC00E94DE0119C00E94550116C00E9496
:1004C0005B0113C00E94F40110C0E4EBF0E08181F5
:1004D00090E0982F88272281820F911D9093A00091
:1004E00080939F0002C00E9436021092AC001092CE
:1004F000AB0010929E008091AB009091AC00883EC2
:10050000934011F40E94F40108950E9470010E942A
:100510003E020E940E02FBCF1F920F920FB60F9267
:1005200011248F939F938091A8008F5F8093A800E0
:100530009091A9008091AA00981309C08091A5000C
:100540009091A60001969093A6008093A5009F919C
:100550008F910F900FBE0F901F9018951F920F92C2
:100560000FB60F9211248F939F938091A7008F5FF6
:100570008093A7009091A9008091AA00981309C0C8
:100580008091A3009091A40001969093A400809381
:10059000A3009F918F910F900FBE0F901F90189501
:1005A0001F920F920FB60F9211248F939F938091F9
:1005B000AD00893020F48F5F8093AD000BC01092A6
:1005C000AD008091AB009091AC0001969093AC008F
:1005D0008093AB009F918F910F900FBE0F901F9053
:1005E00018951F920F920FB60F9211242F933F93DD
:1005F0004F935F936F937F938F939F93AF93BF932B
:10060000EF93FF930E946800FF91EF91BF91AF912C
:100610009F918F917F916F915F914F913F912F911A
:100620000F900FBE0F901F901895E89409C097FB8C
:100630003EF490958095709561957F4F8F4F9F4FB9
:100640009923A9F0F92F96E9BB279395F6958795FD
:1006500077956795B795F111F8CFFAF4BB0F11F4C0
:1006600060FF1BC06F5F7F4F8F4F9F4F16C0882367
:1006700011F096E911C0772321F09EE8872F762F9D
:1006800005C0662371F096E8862F70E060E02AF0DE
:100690009A95660F771F881FDAF7880F96958795CA
:1006A00097F90895990F0008550FAA0BE0E8FEEF9F
:1006B00016161706E807F907C0F012161306E40726
:1006C000F50798F0621B730B840B950B39F40A261F
:1006D00061F0232B242B252B21F408950A2609F4FD
:1006E000A140A6958FEF811D811D08950E945203A0
:1006F00008F48FEF0895EE0FFF1F0590F491E02DA1
:1007000009944532510520F4423010F00C948C03CA
:10071000FB011082CB010895BB274A3031F49923A5
:1007200022F4BDE2909581959F4F0C949803BB27CE
:10073000FB015527AA27880F991FAA1FA41710F09D
:10074000A41B83955051B9F7A05DAA3308F0A95DA9
:10075000A193009779F7B111B1931192CB010C9449
:10076000B103DC01FC01672F71917723E1F7329728
:1007700004C07C916D9370836291AE17BF07C8F37C
:060780000895F894FFCF7C
:10078600647573617274207765726B74206E6F671F
:040796000A0D000048
:00000001FF
