:100000000C942A000C94E9010C9407020C9447000C
:100010000C9447000C9447000C9447000C94470044
:100020000C9447000C9447000C9425020C94470054
:100030000C9447000C9447000C9447000C94470024
:100040000C9447000C9447000C9447000C943B021E
:100050000C94470011241FBECFE5D8E0DEBFCDBF12
:1000600010E0A0E6B0E0E2ECF4E002C005900D92F2
:10007000A837B107D9F720E0A8E7B0E001C01D928A
:10008000A43CB207E1F70E94BA010C945F020C9401
:10009000000011B890E290B995E496BF880F82B93C
:1000A000089581B1803AD1F028F4803641F080384B
:1000B00049F035C0883A21F1883B59F130C010929F
:1000C000A0002DC0E091A00081E08E0F8093A000E1
:1000D00083B1F0E0E858FF4F808321C0E091AE008B
:1000E000F091AF006091A00088E790E00995E8E703
:1000F000F0E08CE890E01192E817F907E1F70FC003
:100100001092A000E091AC00F091AD00099583B988
:1001100006C0E091AC00F091AD00099583B986B7B7
:10012000806886BF08959093AF008093AE000895D5
:100130009093AD008093AC0008955D9BFECF8CB989
:100140000895CF93DF93EC018881882331F02196C5
:100150000E949D0089918111FBCFDF91CF9108957D
:1001600010BC8CE089B91BB886E880BD88E18AB9EB
:1001700081E690E00E94A10008958091600091E0E6
:10018000980F909360000895662359F0FC01A0EB4E
:10019000B0E09C01260F311D91919D93E217F3076A
:1001A000D9F78FEF8093A10083E790E00E94A10030
:1001B0000895833D08F082ED633D08F062ED8ABD4D
:1001C00068BD0895CF93DF939091AA00891791F1AC
:1001D000D62FC82F2091AB00621761F1C91718F410
:1001E00091509093AA009091AA009C1718F49F5FD9
:1001F0009093AA00D21718F421502093AB0090914D
:10020000AB009D1718F49F5F9093AB006091AB001B
:100210008091AA000E94D9008FE19EE40197F1F736
:1002200000C000009091AA00C91721F02091AB00F6
:10023000D213D4CFDF91CF9108958091A9008F5F21
:100240008093A90008958091A90081508093A9000E
:100250000895882311F0AA9A01C0AA98662311F084
:10026000AB9A01C0AB986093A6008093A700089555
:10027000F8948FEF84BB80E381BB82EA8FBD81E17C
:100280008EBD82ED90E097BD86BD1ABC18BC60E0C3
:1002900080E00E94290185E085BF80EA8BBF8AE06B
:1002A00083BF83E68CBF0E94B00080E20E944900B9
:1002B00084EC90E00E9493008DEB90E00E94980007
:1002C000789408958091A700811104C08091A600C0
:1002D000882341F060E080E00E94E20060E080E07E
:1002E0000E9429018091A900682F0E94E2000895D0
:1002F0008091A700813021F48091A600813041F0E7
:1003000060E080E00E94E20061E081E00E9429015B
:100310008091A900682F0E94E20008958091A700B3
:10032000813021F48091A600882341F060E080E0D4
:100330000E94E20060E081E00E9429018091A90012
:10034000682F0E94E20008958091A700811104C0E7
:100350008091A600813041F060E080E00E94E200E0
:1003600061E080E00E9429018091A900682F0E942D
:10037000E20008950E94380184E68093A900C0EB52
:10038000D0E08091A1008823E1F388818B36C9F009
:1003900028F4813669F0843689F018C0833759F023
:1003A000873719F08D3691F40FC00E9462010EC09C
:1003B0000E948E010BC00E94780108C00E94A40117
:1003C00005C00E941D0102C00E9423011092A100DD
:1003D000D8CF1F920F920FB60F9211248F939F9335
:1003E0008091A5008F5F8093A5009091A6008091D9
:1003F000A700981305C08091A3008F5F8093A3008E
:100400009F918F910F900FBE0F901F9018951F9284
:100410000F920FB60F9211248F939F938091A40097
:100420008F5F8093A4009091A6008091A7009813FD
:1004300005C08091A2008F5F8093A2009F918F9151
:100440000F900FBE0F901F9018951F920F920FB62E
:100450000F9211248F938091A800893020F48F5F30
:100460008093A80002C01092A8008F910F900FBE39
:100470000F901F9018951F920F920FB60F92112494
:100480002F933F934F935F936F937F938F939F939C
:10049000AF93BF93EF93FF930E945100FF91EF91B1
:1004A000BF91AF919F918F917F916F915F914F918C
:1004B0003F912F910F900FBE0F901F901895F894B9
:0204C000FFCF6C
:1004C200337573617274207765726B74206E6F6717
:0804D2000A0D006F0A0D000085
:00000001FF
