S0170000456D62656464656450726F6A6563742E737265632C
S11300000C942A000C94AF000C94CD000C943C008A
S11300100C943C000C943C000C943C000C943C006C
S11300200C943C000C943C000C94EB000C943C00AD
S11300300C943C000C943C000C943C000C943C004C
S11300400C943C000C943C000C943C000C943C003C
S11300500C943C0011241FBECFE5D8E0DEBFCDBF19
S113006020E0A0E6B0E001C01D92A337B207E1F79B
S11300700E94A8000C9459020C940000833D08F0DF
S113008082ED633D08F062ED8ABD68BD0895CF93AB
S1130090DF9390917100891761F1D62FC82F2091B9
S11300A07200621731F1C91718F4915090937100DE
S11300B0909171009C1718F49F5F90937100D21770
S11300C018F4215020937200909172009D1718F437
S11300D09F5F9093720060917200809171000E9402
S11300E03E0090917100C91721F020917200D21343
S11300F0DACFDF91CF910895882311F0AA9A01C035
S1130100AA98662311F0AB9A01C0AB98609366007D
S1130110809367000895F8948CE084BB80E381BBEE
S113012082EA8FBD81E18EBD82ED90E097BD86BDF0
S11301301ABC18BC60E080E00E947C0085E085BFAA
S113014080EA8BBF8AE083BF83E68CBF78940895EE
S11301500E948B0068EC88EC0E944700FBCF1F9242
S11301600F920FB60F9211248F939F938091650085
S11301708F5F80936500909166008091670098136B
S113018005C0809161008F5F809361009F918F9182
S11301900F900FBE0F901F9018951F920F920FB6DD
S11301A00F9211248F939F93809164008F5F8093AB
S11301B064009091660080916700981305C0809157
S11301C060008F5F809360009F918F910F900FBEAE
S11301D00F901F9018951F920F920FB60F92112433
S11301E02F933F934F935F936F937F938F939F933B
S11301F0AF93BF93CF93DF93EF93FF938091680006
S113020091E0980F90936800893C08F444C0C09131
S11302106400809162006C2F681B70E080E090E0C5
S11302200E94600120E030E040E85EE30E949B0110
S113023020E030E040EA50E40E949B0160936900B2
S113024070936A0080936B0090936C00D09165006A
S1130250809163006D2F681B70E080E090E00E9445
S1130260600120E030E040E85EE30E949B0120E072
S113027030E040EA50E40E949B0160936D0070936B
S11302806E0080936F0090937000D0936300C093CE
S1130290620010926800FF91EF91DF91CF91BF91BE
S11302A0AF919F918F917F916F915F914F913F910A
S11302B02F910F900FBE0F901F901895E89409C0CE
S11302C097FB3EF490958095709561957F4F8F4F85
S11302D09F4F9923A9F0F92F96E9BB279395F6959B
S11302E0879577956795B795F111F8CFFAF4BB0F19
S11302F011F460FF1BC06F5F7F4F8F4F9F4F16C07D
S1130300882311F096E911C0772321F09EE8872F06
S1130310762F05C0662371F096E8862F70E060E0C2
S11303202AF09A95660F771F881FDAF7880F96953B
S1130330879597F908950E94AE010C941F020E94BC
S1130340110238F00E94180220F0952311F00C9449
S113035008020C940E0211240C9453020E943002E1
S113036070F3959FC1F3950F50E0551F629FF00104
S1130370729FBB27F00DB11D639FAA27F00DB11D1D
S1130380AA1F649F6627B00DA11D661F829F2227A6
S1130390B00DA11D621F739FB00DA11D621F839F2D
S11303A0A00D611D221F749F3327A00D611D231F03
S11303B0849F600D211D822F762F6A2F11249F5751
S11303C050409AF0F1F088234AF0EE0FFF1FBB1F54
S11303D0661F771F881F91505040A9F79E3F510513
S11303E080F00C9408020C9453025F3FE4F3983EAF
S11303F0D4F3869577956795B795F795E7959F5FBD
S1130400C1F7FE2B880F911D9695879597F908954E
S113041097F99F6780E870E060E008959FEF80ECB3
S1130420089500240A941616170618060906089556
S113043000240A9412161306140605060895092EBC
S11304400394000C11F4882352F0BB0F40F4BF2B2B
S113045011F460FF04C06F5F7F4F8F4F9F4F08956B
S113046057FD9058440F551F59F05F3F71F0479561
S1130470880F97FB991F61F09F3F79F08795089546
S1130480121613061406551FF2CF4695F1DF08C065
S1130490161617061806991FF1CF86957105610582
S11304A008940895E894BB2766277727CB0197F92A
S10904B00895F894FFCF4B
S9030000FC
