:100000000C9441000C9476020C9498020C945E00BF
:100010000C945E000C945E000C945E000C945E00E8
:100020000C945E000C945E000C94BA020C945E007A
:100030000C945E000C945E000C945E000C945E00C8
:100040000C945E000C945E000C945E000C94DB0239
:100050000C945E00EB0105020502F10105020502A8
:1000600005020502FD010502F4010502F701050282
:10007000FA01050205020502EE010502050205026C
:10008000E80111241FBECFE5D8E0DEBFCDBF10E0F0
:10009000A0E6B0E0E6E5F8E002C005900D92A437D6
:1000A000B107D9F720E0A4E7B0E001C01D92A63C5B
:1000B000B207E1F70E9469020C9429040C94000035
:1000C00011B890E290B995E496BF880F82B908956F
:1000D00081B1803AD1F028F4803641F0803849F07F
:1000E00035C0883A21F1883B59F130C010929C000C
:1000F0002DC0E0919C0081E08E0F80939C0083B125
:10010000F0E0EC58FF4F808321C0E091B000F09107
:10011000B10060919C0084E790E00995E4E7F0E08D
:1001200088E890E01192E817F907E1F70FC0109204
:100130009C00E091AE00F091AF00099583B906C034
:10014000E091AE00F091AF00099583B986B7806861
:1001500086BF08959093B1008093B0000895909366
:10016000AF008093AE0008955D9BFECF8CB90895DB
:10017000CF93DF93EC018881882331F021960E9490
:10018000B40089918111FBCFDF91CF91089510BC0C
:100190008CE089B91BB886E880BD88E18AB981E620
:1001A00090E00E94B8000895662359F0FC01A2EB8C
:1001B000B0E09C01260F311D91919D93E217F3074A
:1001C000D9F78FEF80939D0008958091A000109241
:1001D000A0000895833D08F082ED633D08F062EDD4
:1001E0008ABD68BD0895CF93DF939091AC008917C5
:1001F00091F1D62FC82F2091AD00621761F1C91778
:1002000018F491509093AC009091AC009C1718F4A6
:100210009F5F9093AC00D21718F421502093AD004B
:100220009091AD009D1718F49F5F9093AD00609181
:10023000AD008091AC000E94EA008FE99FE0019739
:10024000F1F700C000009091AC00C91721F0209197
:10025000AD00D213D4CFDF91CF910895809160008B
:10026000875E80936000089580916000895180933B
:1002700060000895882311F0AA9A01C0AA98662305
:1002800011F0AB9A01C0AB986093A7008093A800CF
:100290000895F8948FEF84BB80E381BB82EA8FBD21
:1002A00081E18EBD82ED90E097BD86BD1ABC18BC81
:1002B00060E080E00E943A0185E085BF80EA8BBF64
:1002C0008AE083BF83E68CBF82E089BF0E94C700BB
:1002D00080E20E94600084ED90E00E94AA0085EE1A
:1002E00090E00E94AF00789408958091A800811159
:1002F00004C08091A700882341F060E080E00E9464
:10030000F30060E080E00E943A0180916000682F75
:100310000E94F30008958091A800813021F480911B
:10032000A700813041F060E080E00E94F30061E0CE
:1003300081E00E943A0180916000682F0E94F300E2
:1003400008958091A800813021F48091A70088232E
:1003500041F060E080E00E94F30060E081E00E94F4
:100360003A0180916000682F0E94F3000895809107
:10037000A800811104C08091A700813041F060E0A5
:1003800080E00E94F30061E080E00E943A018091E9
:100390006000682F0E94F300089560E080E00E94F2
:1003A000EA001092AD001092AC00089580919D007B
:1003B0008823C9F12091B200822F90E0FC01E15620
:1003C000F109E731F10508F5E65DFF4F0C942304D0
:1003D0000E94750122C00E94A1011FC00E948B01D2
:1003E0001CC00E94B70119C00E942E0116C00E94B5
:1003F000340113C00E94CD0110C08091B30090E081
:1004000090939F0080939E0008C0822F90E0880FF9
:10041000991F90939F0080939E001092AA001092C3
:10042000A90010929D008091A9009091AA00883E99
:10043000934011F40E94CD010895AE98A69883B31D
:1004400080740895C098B89886B3817008956091BB
:10045000A3007091A4008091A1009091A200680F68
:10046000791F80E090E00E94FF0220E030E040E051
:100470005FE30E94650308958091AD00811104C07F
:100480008091AC00882319F082EA8FBD01C01FBCA7
:100490000E94270220E030E048E453E40E94600319
:1004A00088236CF08091A0008F5F8093A000109251
:1004B000A4001092A3001092A2001092A1000E942A
:1004C0001D02811103C00E94220281110E94CD01F0
:1004D00008950E9449018091A0008B3010F00E9485
:1004E00075010E94D6010E943C02F5CF1F920F9227
:1004F0000FB60F9211248F939F938091A6008F5F68
:100500008093A6009091A7008091A800981309C03D
:100510008091A3009091A40001969093A4008093F1
:10052000A3009F918F910F900FBE0F901F90189571
:100530001F920F920FB60F9211248F939F93809169
:10054000A5008F5F8093A5009091A7008091A800DF
:10055000981309C08091A1009091A20001969093F8
:10056000A2008093A1009F918F910F900FBE0F90DA
:100570001F9018951F920F920FB60F9211248F9310
:100580009F938091AB00893020F48F5F8093AB0004
:100590000BC01092AB008091A9009091AA00019627
:1005A0009093AA008093A9009F918F910F900FBE06
:1005B0000F901F9018951F920F920FB60F92112453
:1005C0002F933F934F935F936F937F938F939F935B
:1005D000AF93BF93EF93FF930E946800FF91EF9159
:1005E000BF91AF919F918F917F916F915F914F914B
:1005F0003F912F910F900FBE0F901F901895E89488
:1006000009C097FB3EF490958095709561957F4F5A
:100610008F4F9F4F9923A9F0F92F96E9BB27939508
:10062000F695879577956795B795F111F8CFFAF418
:10063000BB0F11F460FF1BC06F5F7F4F8F4F9F4F49
:1006400016C0882311F096E911C0772321F09EE8A7
:10065000872F762F05C0662371F096E8862F70E00D
:1006600060E02AF09A95660F771F881FDAF7880FE7
:100670009695879597F90895990F0008550FAA0B3D
:10068000E0E8FEEF16161706E807F907C0F01216A5
:100690001306E407F50798F0621B730B840B950BA8
:1006A00039F40A2661F0232B242B252B21F40895FD
:1006B0000A2609F4A140A6958FEF811D811D08959A
:1006C0000E943C0308F48FEF08950E9478030C9475
:1006D000E9030E94DB0338F00E94E20320F0952337
:1006E00011F00C94D2030C94D80311240C941D0423
:1006F0000E94FA0370F3959FC1F3950F50E0551FC8
:10070000629FF001729FBB27F00DB11D639FAA2766
:10071000F00DB11DAA1F649F6627B00DA11D661FB5
:10072000829F2227B00DA11D621F739FB00DA11DD6
:10073000621F839FA00D611D221F749F3327A00D90
:10074000611D231F849F600D211D822F762F6A2F2C
:1007500011249F5750409AF0F1F088234AF0EE0F91
:10076000FF1FBB1F661F771F881F91505040A9F7BE
:100770009E3F510580F00C94D2030C941D045F3F02
:10078000E4F3983ED4F3869577956795B795F795FA
:10079000E7959F5FC1F7FE2B880F911D9695879572
:1007A00097F9089597F99F6780E870E060E00895F1
:1007B0009FEF80EC089500240A9416161706180679
:1007C0000906089500240A94121613061406050655
:1007D0000895092E0394000C11F4882352F0BB0FE6
:1007E00040F4BF2B11F460FF04C06F5F7F4F8F4F49
:1007F0009F4F089557FD9058440F551F59F05F3F84
:1008000071F04795880F97FB991F61F09F3F79F032
:1008100087950895121613061406551FF2CF4695B4
:10082000F1DF08C0161617061806991FF1CF869536
:100830007105610508940895E894BB27662777271A
:10084000CB0197F90895EE0FFF1F0590F491E02D6D
:060850000994F894FFCFAB
:10085600647573617274207765726B74206E6F674E
:040866000A0D000077
:00000001FF
