S0170000456D62656464656450726F6A6563742E737265632C
S11300000C9441000C941E020C943C020C945E006F
S11300100C945E000C945E000C945E000C945E00E4
S11300200C945E000C945E000C945A020C945E00D6
S11300300C945E000C945E000C945E000C945E00C4
S11300400C945E000C945E000C945E000C947B0295
S11300500C945E00F1010E020E02F7010E020E0274
S11300600E020E0203020E02FA010E02FD010E023E
S113007000020E020E020E02F4010E020E020E0225
S1130080EE0111241FBECFE5D8E0DEBFCDBF10E0E6
S1130090A0E6B0E0EEE4F5E002C005900D92A837CA
S11300A0B107D9F720E0A8E7B0E001C01D92A83C51
S11300B0B207E1F70E94D6010C94A5020C9400004B
S11300C011B890E290B995E496BF880F82B908956B
S11300D081B1803AD1F028F4803641F0803849F07B
S11300E035C0883A21F1883B59F130C01092A00004
S11300F02DC0E091A00081E08E0F8093A00083B119
S1130100F0E0E858FF4F808321C0E091B200F09105
S1130110B3006091A00088E790E00995E8E7F0E07B
S11301208CE890E01192E817F907E1F70FC01092FC
S1130130A000E091B000F091B100099583B906C028
S1130140E091B000F091B100099583B986B7806859
S113015086BF08959093B3008093B200089590935E
S1130160B1008093B00008955D9BFECF8CB90895D3
S1130170CF93DF93EC018881882331F021960E948C
S1130180B40089918111FBCFDF91CF91089510BC08
S11301908CE089B91BB886E880BD88E18AB981E61C
S11301A090E00E94B80008958091600091E0980F5B
S11301B0909360000895662359F0FC01A4EBB0E02D
S11301C09C01260F311D91919D93E217F307D9F7F6
S11301D08FEF8093A10083E790E00E94B800089518
S11301E0833D08F082ED633D08F062ED8ABD68BD91
S11301F00895CF93DF939091AE00891791F1D62F94
S1130200C82F2091AF00621761F1C91718F49150FB
S11302109093AE009091AE009C1718F49F5F90935A
S1130220AE00D21718F421502093AF009091AF0084
S11302309D1718F49F5F9093AF006091AF00809179
S1130240AE000E94F0008FE99FE00197F1F700C033
S113025000009091AE00C91721F02091AF00D21395
S1130260D4CFDF91CF9108958091AD00875E8093C4
S1130270AD0008958091AD0089518093AD0008953B
S1130280882311F0AA9A01C0AA98662311F0AB9AA8
S113029001C0AB986093A8008093A9000895F894D6
S11302A08FEF84BB80E381BB82EA8FBD81E18EBD89
S11302B082ED90E097BD86BD1ABC18BC60E080E07A
S11302C00E94400185E085BF80EA8BBF8AE083BF3E
S11302D083E68CBF0E94C70080E20E9460008BED21
S11302E090E00E94AA0084ED90E00E94AF00789410
S11302F008958091A900811104C08091A8008823E9
S113030041F060E080E00E94F90060E080E00E943B
S113031040018091AD00682F0E94F90008958091FA
S1130320A900813021F48091A800813041F060E07F
S113033080E00E94F90061E081E00E944001809128
S1130340AD00682F0E94F90008958091A9008130C2
S113035021F48091A800882341F060E080E00E94AD
S1130360F90060E081E00E9440018091AD00682FB7
S11303700E94F90008958091A900811104C0809120
S1130380A800813041F060E080E00E94F90061E063
S113039080E00E9440018091AD00682F0E94F90026
S11303A0089560E080E00E94F00008950E944F01EB
S11303B084E68093AD00C4EBD0E08091A100882353
S11303C099F1E8818E2F90E0FC01E156F109E731C3
S11303D0F10520F5E65DFF4F0C949F020E94790120
S11303E01DC00E94A5011AC00E948F0117C00E945F
S11303F0BB0114C00E94340111C00E943A010EC016
S11304000E94D1010BC0898190E0982F88272A810E
S1130410820F911D9093A3008093A2001092AB00D1
S11304201092AA001092A1008091AA009091AB00B2
S1130430883E934011F60E94D101BFCF1F920F92C4
S11304400FB60F9211248F939F938091A7008F5F13
S11304508093A7009091A8008091A900981305C0EB
S11304608091A5008F5F8093A5009F918F910F903D
S11304700FBE0F901F9018951F920F920FB60F92F8
S113048011248F939F938091A6008F5F8093A60081
S11304909091A8008091A900981305C08091A400B0
S11304A08F5F8093A4009F918F910F900FBE0F9048
S11304B01F9018951F920F920FB60F9211248F93CD
S11304C09F938091AC00893020F48F5F8093AC00BF
S11304D00BC01092AC008091AA009091AB000196E1
S11304E09093AB008093AA009F918F910F900FBEC1
S11304F00F901F9018951F920F920FB60F92112410
S11305002F933F934F935F936F937F938F939F9317
S1130510AF93BF93EF93FF930E946800FF91EF9115
S1130520BF91AF919F918F917F916F915F914F9107
S11305303F912F910F900FBE0F901F901895EE0FC3
S1110540FF1F0590F491E02D0994F894FFCF6D
S113054E337573617274207765726B74206E6F6786
S10B055E0A0D006F0A0D0000F4
S9030000FC
