S0170000456D62656464656450726F6A6563742E737265632C
S11300000C942A000C9446010C9464010C943C005A
S11300100C943C000C943C000C943C000C943C006C
S11300200C943C000C943C000C9482010C943C0015
S11300300C943C000C943C000C943C000C943C004C
S11300400C943C000C943C000C943C000C943C003C
S11300500C943C0011241FBECFE5D8E0DEBFCDBF19
S113006020E0A0E6B0E001C01D92AA36B207E1F795
S11300700E9441010C9498010C9400002FE78AE13E
S113008096E0215080409040E1F700C000002FE747
S11300908AE196E0215080409040E1F700C00000E2
S11300A02FE78AE196E0215080409040E1F700C0BC
S11300B000000895833D08F082ED633D08F062ED91
S11300C08ABD68BD0895CF93DF9390916800891726
S11300D091F1D62FC82F20916900621761F1C917D9
S11300E018F4915090936800909168009C1718F44C
S11300F09F5F90936800D21718F4215020936900F1
S1130100909169009D1718F49F5F90936900609126
S11301106900809168000E945A008FE19EE4019773
S1130120F1F700C0000090916800C91721F02091F8
S11301306900D213D4CFDF91CF910895882311F0B1
S1130140AA9A01C0AA98662311F0AB9A01C0AB9891
S113015060936400809365000895F8948CE084BBF8
S113016080E381BB82EA8FBD81E18EBD82ED90E0A8
S113017097BD86BD1ABC18BC60E080E00E949E005A
S113018085E085BF80EA8BBF8AE083BF83E68CBFAE
S11301907894089580916500811104C08091640071
S11301A0882341F060E080E00E94630060E080E02A
S11301B00E949E0080916700682F0E94630008954A
S11301C080916500813021F480916400813041F098
S11301D060E080E00E94630061E081E00E949E0094
S11301E080916700682F0E946300089580916500E4
S11301F0813021F480916400882341F060E080E044
S11302000E94630060E081E00E949E00809167008C
S1130210682F0E946300089580916500811104C0D5
S113022080916400813041F060E080E00E946300CE
S113023061E080E00E949E0080916700682F0E9428
S11302406300089582E00E943E000E94CA0082E09A
S11302500E943E000E94F60082E00E943E000E943E
S1130260E00082E00E943E000E940C018091670041
S1130270833D18F0109267000895875E80936700AD
S113028008950E94AD000E942201FDCF1F920F929B
S11302900FB60F9211248F939F93809163008F5F09
S11302A0809363009091640080916500981305C069
S11302B0809161008F5F809361009F918F910F9077
S11302C00FBE0F901F9018951F920F920FB60F92AA
S11302D011248F939F93809162008F5F80936200BB
S11302E09091640080916500981305C0809160002E
S11302F08F5F809360009F918F910F900FBE0F903E
S11303001F9018951F920F920FB60F9211248F937E
S113031080916600893020F48F5F8093660002C06C
S1130320109266008F910F900FBE0F901F9018953A
S1070330F894FFCF6B
S9030000FC
